S00F00004C6162385F647A2E7372656391
S113000012C02CC02BC02AC029C028C027C026C0BB
S113001025C024C023C022C021C020C01FC01EC0D0
S11300201DC01CC01BC011241FBECFE5D4E0DEBF21
S1130030CDBF10E0A0E6B0E0E8E0F2E002C0059039
S11300400D92AA36B107D9F720E0AAE6B0E001C0C4
S11300501D92A237B207E1F770D0D4C0D1CFCF93AD
S1130060DF93AC01EC01D695C795D695C795D69587
S1130070C7959E01A5ECB0E2B9D0FC01F295E295DA
S1130080EF70EF27FF70EF27F0937100E09370009B
S113009028EE33E0E29FC001E39F900DF29F900DA4
S11300A011249A01281B390B3695279536952795E7
S11300B0ABE7B4E19BD09695879590936F008093BE
S11300C06E009A0136952795369527958FD09C0119
S11300D03695279564E6629FC001639F900D1124B5
S11300E09A01281B390BADECBCEC80D09695879512
S11300F0969587959695879590936D0080936C005F
S11301009A0174D096958795969587959695879537
S11301109C01220F331F880F991F880F991F880F86
S1130120991F820F931F9A01281B390B30936B0080
S113013020936A00DF91CF9108958FEF81BB87B33D
S11301408F6087BB88EE97E08ADF88B38E6088BBB8
S113015088B38E7F88BBE0917000F0917100E05A03
S1130160FF4F808182BB8DEE92E00197F1F700C0D2
S1130170000088B38D6088BB88B38D7F88BBE09115
S11301806E00F0916F00E05AFF4F808182BB8DEECC
S113019092E00197F1F700C0000088B38B6088BB40
S11301A088B38B7F88BBE0916C00F0916D00E05ABE
S11301B0FF4F808182BB8DEE92E00197F1F700C082
S11301C0000088B3876088BB88B3877F88BBE091D1
S11301D06A00F0916B00E05AFF4F808182BB8DEE84
S11301E092E00197F1F700C00000ACCFA29FB001EC
S11301F0B39FC001A39F01D0B29F700D811D112434
S10B0200911D0895F894FFCF4D
S10D02083F065B4F666D7D077F6FB4
S9030000FC
