S00C00004C6162352E73726563D4
S113000012C024C023C022C021C020C01FC01EC0F3
S11300101DC01CC01BC01AC019C018C017C016C010
S113002015C014C013C011241FBECFE5D4E0DEBF39
S1130030CDBF10E0A0E6B0E0EAEAF0E002C005902F
S11300400D92AA36B107D9F702D02DC0D9CF8FEFC0
S113005081BB12BA80E010C0E82FF0E0E05AFF4FF5
S1130060908192BB2FE936E891E0215030409040D6
S1130070E1F700C000008F5F8A3070F388E010C0A1
S1130080E82FF0E0E05AFF4F908192BB2FE936E869
S113009091E0215030409040E1F700C000008150D1
S10D00A08111EECFD7CFF894FFCF03
S10D00AA3F065B4F666D7D077F6F14
S9030000FC
