S00C00004C6162342E73726563D5
S113000012C019C018C017C016C015C014C013C040
S113001012C011C010C00FC00EC00DC00CC00BC068
S11300200AC009C008C011241FBECFE5D4E0DEBF5A
S1130030CDBF02D089C0E4CF8FEF81BB82BB87BB29
S113004018BA8FE382BB80EC88BB2FE986E891E085
S1130050215080409040E1F700C0000086E082BB60
S113006089EF88BB2FE986E891E0215080409040D9
S1130070E1F700C000008BE582BB84EA88BB2FE96E
S113008086E891E0215080409040E1F700C00000F4
S11300908FE482BB80EB88BB2FE986E891E0215096
S11300A080409040E1F700C0000086E682BB89E909
S11300B088BB2FE986E891E0215080409040E1F729
S11300C000C000008DE682BB82E988BB2FE986E888
S11300D091E0215080409040E1F700C000008DE79E
S11300E082BB82E888BB2FE986E891E021508040FA
S11300F09040E1F700C0000087E082BB88EF88BB36
S11301002FE986E891E0215080409040E1F700C05B
S113011000008FE782BB80E888BB2FE986E891E086
S1130120215080409040E1F700C000008FE682BB80
S113013080E988BB2FE986E891E021508040904017
S10F0140E1F700C000007DCFF894FFCF71
S9030000FC
