S00E00004C61625F31302E7372656347
S113000012C02CC02BC02AC029C028C027C026C0BB
S113001025C024C023C022C021C020C01FC01EC0D0
S11300201DC01CC01BC011241FBECFE5D4E0DEBF21
S1130030CDBF10E0A0E6B0E0EEEFF0E002C0059026
S11300400D92AA36B107D9F720E0AAE6B0E001C0C4
S11300501D92AC36B207E1F702D04FC0D1CF8FEF7B
S113006087BB18BA81B3897F81BB82B3866082BBA8
S113007081991FC080916A0090916B0001969093C2
S11300806B0080936A000A9724F010926B00109220
S11300906A00E0916A00F0916B00E05AFF4F8081A2
S11300A088BB819BFECF8FE493EC0197F1F700C0EE
S11300B000008299DDCF80916A0090916B000197D6
S11300C090936B0080936A00992334F489E090E064
S11300D090936B0080936A00E0916A00F0916B004A
S11300E0E05AFF4F808188BB829BFECF8FE493EC64
S11100F00197F1F700C00000BBCFF894FFCFDA
S10D00FE3F065B4F666D7D077F6FC0
S9030000FC
