S00C00004C6162382E73726563D1
S113000012C02CC02BC02AC029C028C027C026C0BB
S113001025C024C023C022C021C020C01FC01EC0D0
S11300201DC01CC01BC011241FBECFE5D4E0DEBF21
S1130030CDBF10E0A0E6B0E0E0E9F1E002C0059039
S11300400D92AA36B107D9F720E0AAE6B0E001C0C4
S11300501D92A037B207E1F748D098C0D1CFCF9313
S1130060DF93AC01EC01D695C795D695C7959E0153
S1130070ABE7B4E17FD0FC01F695E795F0936F0010
S1130080E0936E0024E62E9FC0012F9F900D112453
S11300909A01281B390BADECBCEC6CD09695879576
S11300A0969587959695879590936D0080936C00AF
S11300B09A0160D09695879596958795969587959C
S11300C09C01220F331F880F991F880F991F880FD7
S11300D0991F820F931F9A01281B390B30936B00D1
S11300E020936A00DF91CF9108958FEF81BB87B38E
S11300F0876087BB80E993E0B2DF88B3897F88BBE0
S113010088B3816088BBE0916E00F0916F00E05A83
S1130110FF4F808182BB8DEE92E00197F1F700C022
S1130120000088B38A7F88BB88B3826088BBE09173
S11301306C00F0916D00E05AFF4F808182BB8DEE20
S113014092E00197F1F700C0000088B38C7F88BB70
S113015088B3846088BBE0916A00F0916B00E05A38
S1130160FF4F808182BB8DEE92E00197F1F700C0D2
S11301700000C0CFA29FB001B39FC001A39F01D0D4
S1130180B29F700D811D1124911D0895F894FFCF25
S10D01903F065B4F666D7D077F6F2D
S9030000FC
